{
	"contracts/Ticketing.sol": {
		"Ticketing": {
			"abi": [
				{
					"anonymous": false,
					"inputs": [
						{
							"indexed": true,
							"internalType": "bytes32",
							"name": "ticketId",
							"type": "bytes32"
						},
						{
							"indexed": false,
							"internalType": "uint32",
							"name": "price",
							"type": "uint32"
						},
						{
							"indexed": false,
							"internalType": "uint64",
							"name": "paymentId",
							"type": "uint64"
						},
						{
							"indexed": false,
							"internalType": "uint256",
							"name": "timestamp",
							"type": "uint256"
						}
					],
					"name": "TicketCreated",
					"type": "event"
				},
				{
					"anonymous": false,
					"inputs": [
						{
							"indexed": true,
							"internalType": "bytes32",
							"name": "ticketId",
							"type": "bytes32"
						},
						{
							"indexed": false,
							"internalType": "enum Ticketing.Status",
							"name": "newStatus",
							"type": "uint8"
						}
					],
					"name": "TicketStatusUpdated",
					"type": "event"
				},
				{
					"inputs": [
						{
							"internalType": "bytes32",
							"name": "_ticketId",
							"type": "bytes32"
						},
						{
							"internalType": "uint32",
							"name": "_price",
							"type": "uint32"
						},
						{
							"internalType": "uint64",
							"name": "_paymentId",
							"type": "uint64"
						}
					],
					"name": "createTicket",
					"outputs": [],
					"stateMutability": "nonpayable",
					"type": "function"
				},
				{
					"inputs": [
						{
							"internalType": "bytes32",
							"name": "_ticketId",
							"type": "bytes32"
						}
					],
					"name": "getTicketDetails",
					"outputs": [
						{
							"internalType": "uint32",
							"name": "price",
							"type": "uint32"
						},
						{
							"internalType": "enum Ticketing.Status",
							"name": "status",
							"type": "uint8"
						},
						{
							"internalType": "uint64",
							"name": "paymentId",
							"type": "uint64"
						},
						{
							"internalType": "uint256",
							"name": "timestamp",
							"type": "uint256"
						}
					],
					"stateMutability": "view",
					"type": "function"
				},
				{
					"inputs": [
						{
							"internalType": "bytes32",
							"name": "",
							"type": "bytes32"
						}
					],
					"name": "tickets",
					"outputs": [
						{
							"internalType": "bytes32",
							"name": "ticketId",
							"type": "bytes32"
						},
						{
							"internalType": "uint32",
							"name": "price",
							"type": "uint32"
						},
						{
							"internalType": "enum Ticketing.Status",
							"name": "status",
							"type": "uint8"
						},
						{
							"internalType": "uint64",
							"name": "paymentId",
							"type": "uint64"
						},
						{
							"internalType": "uint256",
							"name": "timestamp",
							"type": "uint256"
						}
					],
					"stateMutability": "view",
					"type": "function"
				},
				{
					"inputs": [
						{
							"internalType": "bytes32",
							"name": "_ticketId",
							"type": "bytes32"
						},
						{
							"internalType": "enum Ticketing.Status",
							"name": "newStatus",
							"type": "uint8"
						}
					],
					"name": "updateTicketStatus",
					"outputs": [],
					"stateMutability": "nonpayable",
					"type": "function"
				}
			],
			"devdoc": {
				"kind": "dev",
				"methods": {},
				"version": 1
			},
			"evm": {
				"assembly": "    /* \"contracts/Ticketing.sol\":1238:3957  contract Ticketing {... */\n  mstore(0x40, 0x80)\n  callvalue\n  dup1\n  iszero\n  tag_1\n  jumpi\n  0x00\n  dup1\n  revert\ntag_1:\n  pop\n  dataSize(sub_0)\n  dup1\n  dataOffset(sub_0)\n  0x00\n  codecopy\n  0x00\n  return\nstop\n\nsub_0: assembly {\n        /* \"contracts/Ticketing.sol\":1238:3957  contract Ticketing {... */\n      mstore(0x40, 0x80)\n      callvalue\n      dup1\n      iszero\n      tag_1\n      jumpi\n      0x00\n      dup1\n      revert\n    tag_1:\n      pop\n      jumpi(tag_2, lt(calldatasize, 0x04))\n      shr(0xe0, calldataload(0x00))\n      dup1\n      0x8707fbfe\n      eq\n      tag_3\n      jumpi\n      dup1\n      0xb64dec65\n      eq\n      tag_4\n      jumpi\n      dup1\n      0xcda24031\n      eq\n      tag_5\n      jumpi\n      dup1\n      0xdf0dd0d5\n      eq\n      tag_6\n      jumpi\n    tag_2:\n      0x00\n      dup1\n      revert\n        /* \"contracts/Ticketing.sol\":2186:2909  function createTicket(bytes32 _ticketId, uint32 _price, uint64 _paymentId) external {... */\n    tag_3:\n      tag_7\n      0x04\n      dup1\n      calldatasize\n      sub\n      dup2\n      add\n      swap1\n      tag_8\n      swap2\n      swap1\n      tag_9\n      jump\t// in\n    tag_8:\n      tag_10\n      jump\t// in\n    tag_7:\n      stop\n        /* \"contracts/Ticketing.sol\":3517:3952  function getTicketDetails(bytes32 _ticketId) external view returns (uint32 price, Status status, uint64 paymentId, uint256 timestamp) {... */\n    tag_4:\n      tag_11\n      0x04\n      dup1\n      calldatasize\n      sub\n      dup2\n      add\n      swap1\n      tag_12\n      swap2\n      swap1\n      tag_13\n      jump\t// in\n    tag_12:\n      tag_14\n      jump\t// in\n    tag_11:\n      mload(0x40)\n      tag_15\n      swap5\n      swap4\n      swap3\n      swap2\n      swap1\n      tag_16\n      jump\t// in\n    tag_15:\n      mload(0x40)\n      dup1\n      swap2\n      sub\n      swap1\n      return\n        /* \"contracts/Ticketing.sol\":3002:3421  function updateTicketStatus(bytes32 _ticketId, Status newStatus) external {... */\n    tag_5:\n      tag_17\n      0x04\n      dup1\n      calldatasize\n      sub\n      dup2\n      add\n      swap1\n      tag_18\n      swap2\n      swap1\n      tag_19\n      jump\t// in\n    tag_18:\n      tag_20\n      jump\t// in\n    tag_17:\n      stop\n        /* \"contracts/Ticketing.sol\":1800:1841  mapping(bytes32 => Ticket) public tickets */\n    tag_6:\n      tag_21\n      0x04\n      dup1\n      calldatasize\n      sub\n      dup2\n      add\n      swap1\n      tag_22\n      swap2\n      swap1\n      tag_13\n      jump\t// in\n    tag_22:\n      tag_23\n      jump\t// in\n    tag_21:\n      mload(0x40)\n      tag_24\n      swap6\n      swap5\n      swap4\n      swap3\n      swap2\n      swap1\n      tag_25\n      jump\t// in\n    tag_24:\n      mload(0x40)\n      dup1\n      swap2\n      sub\n      swap1\n      return\n        /* \"contracts/Ticketing.sol\":2186:2909  function createTicket(bytes32 _ticketId, uint32 _price, uint64 _paymentId) external {... */\n    tag_10:\n        /* \"contracts/Ticketing.sol\":2368:2377  _ticketId */\n      dup3\n        /* \"contracts/Ticketing.sol\":2337:2344  tickets */\n      0x00\n        /* \"contracts/Ticketing.sol\":2337:2355  tickets[_ticketId] */\n      dup1\n        /* \"contracts/Ticketing.sol\":2345:2354  _ticketId */\n      dup6\n        /* \"contracts/Ticketing.sol\":2337:2355  tickets[_ticketId] */\n      dup2\n      mstore\n      0x20\n      add\n      swap1\n      dup2\n      mstore\n      0x20\n      add\n      0x00\n      keccak256\n        /* \"contracts/Ticketing.sol\":2337:2364  tickets[_ticketId].ticketId */\n      0x00\n      add\n      sload\n        /* \"contracts/Ticketing.sol\":2337:2377  tickets[_ticketId].ticketId != _ticketId */\n      sub\n        /* \"contracts/Ticketing.sol\":2329:2403  require(tickets[_ticketId].ticketId != _ticketId, \"Ticket already exists\") */\n      tag_27\n      jumpi\n      mload(0x40)\n      0x08c379a000000000000000000000000000000000000000000000000000000000\n      dup2\n      mstore\n      0x04\n      add\n      tag_28\n      swap1\n      tag_29\n      jump\t// in\n    tag_28:\n      mload(0x40)\n      dup1\n      swap2\n      sub\n      swap1\n      revert\n    tag_27:\n        /* \"contracts/Ticketing.sol\":2486:2773  Ticket({... */\n      mload(0x40)\n      dup1\n      0xa0\n      add\n      0x40\n      mstore\n      dup1\n        /* \"contracts/Ticketing.sol\":2518:2527  _ticketId */\n      dup5\n        /* \"contracts/Ticketing.sol\":2486:2773  Ticket({... */\n      dup2\n      mstore\n      0x20\n      add\n        /* \"contracts/Ticketing.sol\":2549:2555  _price */\n      dup4\n        /* \"contracts/Ticketing.sol\":2486:2773  Ticket({... */\n      0xffffffff\n      and\n      dup2\n      mstore\n      0x20\n      add\n        /* \"contracts/Ticketing.sol\":2578:2591  Status.Active */\n      0x00\n        /* \"contracts/Ticketing.sol\":2486:2773  Ticket({... */\n      0x02\n      dup2\n      gt\n      iszero\n      tag_30\n      jumpi\n      tag_31\n      tag_32\n      jump\t// in\n    tag_31:\n    tag_30:\n      dup2\n      mstore\n      0x20\n      add\n        /* \"contracts/Ticketing.sol\":2652:2662  _paymentId */\n      dup3\n        /* \"contracts/Ticketing.sol\":2486:2773  Ticket({... */\n      0xffffffffffffffff\n      and\n      dup2\n      mstore\n      0x20\n      add\n        /* \"contracts/Ticketing.sol\":2713:2728  block.timestamp */\n      timestamp\n        /* \"contracts/Ticketing.sol\":2486:2773  Ticket({... */\n      dup2\n      mstore\n      pop\n        /* \"contracts/Ticketing.sol\":2465:2472  tickets */\n      0x00\n        /* \"contracts/Ticketing.sol\":2465:2483  tickets[_ticketId] */\n      dup1\n        /* \"contracts/Ticketing.sol\":2473:2482  _ticketId */\n      dup6\n        /* \"contracts/Ticketing.sol\":2465:2483  tickets[_ticketId] */\n      dup2\n      mstore\n      0x20\n      add\n      swap1\n      dup2\n      mstore\n      0x20\n      add\n      0x00\n      keccak256\n        /* \"contracts/Ticketing.sol\":2465:2773  tickets[_ticketId] = Ticket({... */\n      0x00\n      dup3\n      add\n      mload\n      dup2\n      0x00\n      add\n      sstore\n      0x20\n      dup3\n      add\n      mload\n      dup2\n      0x01\n      add\n      exp(0x0100, 0x00)\n      dup2\n      sload\n      dup2\n      0xffffffff\n      mul\n      not\n      and\n      swap1\n      dup4\n      0xffffffff\n      and\n      mul\n      or\n      swap1\n      sstore\n      pop\n      0x40\n      dup3\n      add\n      mload\n      dup2\n      0x01\n      add\n      exp(0x0100, 0x04)\n      dup2\n      sload\n      dup2\n      0xff\n      mul\n      not\n      and\n      swap1\n      dup4\n      0x02\n      dup2\n      gt\n      iszero\n      tag_33\n      jumpi\n      tag_34\n      tag_32\n      jump\t// in\n    tag_34:\n    tag_33:\n      mul\n      or\n      swap1\n      sstore\n      pop\n      0x60\n      dup3\n      add\n      mload\n      dup2\n      0x01\n      add\n      exp(0x0100, 0x05)\n      dup2\n      sload\n      dup2\n      0xffffffffffffffff\n      mul\n      not\n      and\n      swap1\n      dup4\n      0xffffffffffffffff\n      and\n      mul\n      or\n      swap1\n      sstore\n      pop\n      0x80\n      dup3\n      add\n      mload\n      dup2\n      0x02\n      add\n      sstore\n      swap1\n      pop\n      pop\n        /* \"contracts/Ticketing.sol\":2854:2863  _ticketId */\n      dup3\n        /* \"contracts/Ticketing.sol\":2840:2901  TicketCreated(_ticketId, _price, _paymentId, block.timestamp) */\n      0x35275d029244fa5c0d430ac38ffb3793c7e924907fba98f96b63ef472c999cca\n        /* \"contracts/Ticketing.sol\":2865:2871  _price */\n      dup4\n        /* \"contracts/Ticketing.sol\":2873:2883  _paymentId */\n      dup4\n        /* \"contracts/Ticketing.sol\":2885:2900  block.timestamp */\n      timestamp\n        /* \"contracts/Ticketing.sol\":2840:2901  TicketCreated(_ticketId, _price, _paymentId, block.timestamp) */\n      mload(0x40)\n      tag_35\n      swap4\n      swap3\n      swap2\n      swap1\n      tag_36\n      jump\t// in\n    tag_35:\n      mload(0x40)\n      dup1\n      swap2\n      sub\n      swap1\n      log2\n        /* \"contracts/Ticketing.sol\":2186:2909  function createTicket(bytes32 _ticketId, uint32 _price, uint64 _paymentId) external {... */\n      pop\n      pop\n      pop\n      jump\t// out\n        /* \"contracts/Ticketing.sol\":3517:3952  function getTicketDetails(bytes32 _ticketId) external view returns (uint32 price, Status status, uint64 paymentId, uint256 timestamp) {... */\n    tag_14:\n        /* \"contracts/Ticketing.sol\":3585:3597  uint32 price */\n      0x00\n        /* \"contracts/Ticketing.sol\":3599:3612  Status status */\n      dup1\n        /* \"contracts/Ticketing.sol\":3614:3630  uint64 paymentId */\n      0x00\n        /* \"contracts/Ticketing.sol\":3632:3649  uint256 timestamp */\n      dup1\n        /* \"contracts/Ticketing.sol\":3738:3747  _ticketId */\n      dup5\n        /* \"contracts/Ticketing.sol\":3707:3714  tickets */\n      0x00\n        /* \"contracts/Ticketing.sol\":3707:3725  tickets[_ticketId] */\n      dup1\n        /* \"contracts/Ticketing.sol\":3715:3724  _ticketId */\n      dup8\n        /* \"contracts/Ticketing.sol\":3707:3725  tickets[_ticketId] */\n      dup2\n      mstore\n      0x20\n      add\n      swap1\n      dup2\n      mstore\n      0x20\n      add\n      0x00\n      keccak256\n        /* \"contracts/Ticketing.sol\":3707:3734  tickets[_ticketId].ticketId */\n      0x00\n      add\n      sload\n        /* \"contracts/Ticketing.sol\":3707:3747  tickets[_ticketId].ticketId == _ticketId */\n      eq\n        /* \"contracts/Ticketing.sol\":3699:3769  require(tickets[_ticketId].ticketId == _ticketId, \"Invalid ticket ID\") */\n      tag_38\n      jumpi\n      mload(0x40)\n      0x08c379a000000000000000000000000000000000000000000000000000000000\n      dup2\n      mstore\n      0x04\n      add\n      tag_39\n      swap1\n      tag_40\n      jump\t// in\n    tag_39:\n      mload(0x40)\n      dup1\n      swap2\n      sub\n      swap1\n      revert\n    tag_38:\n        /* \"contracts/Ticketing.sol\":3820:3840  Ticket memory ticket */\n      0x00\n        /* \"contracts/Ticketing.sol\":3843:3850  tickets */\n      dup1\n        /* \"contracts/Ticketing.sol\":3843:3861  tickets[_ticketId] */\n      0x00\n        /* \"contracts/Ticketing.sol\":3851:3860  _ticketId */\n      dup8\n        /* \"contracts/Ticketing.sol\":3843:3861  tickets[_ticketId] */\n      dup2\n      mstore\n      0x20\n      add\n      swap1\n      dup2\n      mstore\n      0x20\n      add\n      0x00\n      keccak256\n        /* \"contracts/Ticketing.sol\":3820:3861  Ticket memory ticket = tickets[_ticketId] */\n      mload(0x40)\n      dup1\n      0xa0\n      add\n      0x40\n      mstore\n      swap1\n      dup2\n      0x00\n      dup3\n      add\n      sload\n      dup2\n      mstore\n      0x20\n      add\n      0x01\n      dup3\n      add\n      0x00\n      swap1\n      sload\n      swap1\n      0x0100\n      exp\n      swap1\n      div\n      0xffffffff\n      and\n      0xffffffff\n      and\n      0xffffffff\n      and\n      dup2\n      mstore\n      0x20\n      add\n      0x01\n      dup3\n      add\n      0x04\n      swap1\n      sload\n      swap1\n      0x0100\n      exp\n      swap1\n      div\n      0xff\n      and\n      0x02\n      dup2\n      gt\n      iszero\n      tag_41\n      jumpi\n      tag_42\n      tag_32\n      jump\t// in\n    tag_42:\n    tag_41:\n      0x02\n      dup2\n      gt\n      iszero\n      tag_43\n      jumpi\n      tag_44\n      tag_32\n      jump\t// in\n    tag_44:\n    tag_43:\n      dup2\n      mstore\n      0x20\n      add\n      0x01\n      dup3\n      add\n      0x05\n      swap1\n      sload\n      swap1\n      0x0100\n      exp\n      swap1\n      div\n      0xffffffffffffffff\n      and\n      0xffffffffffffffff\n      and\n      0xffffffffffffffff\n      and\n      dup2\n      mstore\n      0x20\n      add\n      0x02\n      dup3\n      add\n      sload\n      dup2\n      mstore\n      pop\n      pop\n      swap1\n      pop\n        /* \"contracts/Ticketing.sol\":3880:3886  ticket */\n      dup1\n        /* \"contracts/Ticketing.sol\":3880:3892  ticket.price */\n      0x20\n      add\n      mload\n        /* \"contracts/Ticketing.sol\":3894:3900  ticket */\n      dup2\n        /* \"contracts/Ticketing.sol\":3894:3907  ticket.status */\n      0x40\n      add\n      mload\n        /* \"contracts/Ticketing.sol\":3909:3915  ticket */\n      dup3\n        /* \"contracts/Ticketing.sol\":3909:3925  ticket.paymentId */\n      0x60\n      add\n      mload\n        /* \"contracts/Ticketing.sol\":3927:3933  ticket */\n      dup4\n        /* \"contracts/Ticketing.sol\":3927:3943  ticket.timestamp */\n      0x80\n      add\n      mload\n        /* \"contracts/Ticketing.sol\":3872:3944  return (ticket.price, ticket.status, ticket.paymentId, ticket.timestamp) */\n      swap5\n      pop\n      swap5\n      pop\n      swap5\n      pop\n      swap5\n      pop\n      pop\n        /* \"contracts/Ticketing.sol\":3517:3952  function getTicketDetails(bytes32 _ticketId) external view returns (uint32 price, Status status, uint64 paymentId, uint256 timestamp) {... */\n      swap2\n      swap4\n      pop\n      swap2\n      swap4\n      jump\t// out\n        /* \"contracts/Ticketing.sol\":3002:3421  function updateTicketStatus(bytes32 _ticketId, Status newStatus) external {... */\n    tag_20:\n        /* \"contracts/Ticketing.sol\":3175:3184  _ticketId */\n      dup2\n        /* \"contracts/Ticketing.sol\":3144:3151  tickets */\n      0x00\n        /* \"contracts/Ticketing.sol\":3144:3162  tickets[_ticketId] */\n      dup1\n        /* \"contracts/Ticketing.sol\":3152:3161  _ticketId */\n      dup5\n        /* \"contracts/Ticketing.sol\":3144:3162  tickets[_ticketId] */\n      dup2\n      mstore\n      0x20\n      add\n      swap1\n      dup2\n      mstore\n      0x20\n      add\n      0x00\n      keccak256\n        /* \"contracts/Ticketing.sol\":3144:3171  tickets[_ticketId].ticketId */\n      0x00\n      add\n      sload\n        /* \"contracts/Ticketing.sol\":3144:3184  tickets[_ticketId].ticketId == _ticketId */\n      eq\n        /* \"contracts/Ticketing.sol\":3136:3206  require(tickets[_ticketId].ticketId == _ticketId, \"Invalid ticket ID\") */\n      tag_46\n      jumpi\n      mload(0x40)\n      0x08c379a000000000000000000000000000000000000000000000000000000000\n      dup2\n      mstore\n      0x04\n      add\n      tag_47\n      swap1\n      tag_40\n      jump\t// in\n    tag_47:\n      mload(0x40)\n      dup1\n      swap2\n      sub\n      swap1\n      revert\n    tag_46:\n        /* \"contracts/Ticketing.sol\":3291:3300  newStatus */\n      dup1\n        /* \"contracts/Ticketing.sol\":3263:3270  tickets */\n      0x00\n        /* \"contracts/Ticketing.sol\":3263:3281  tickets[_ticketId] */\n      dup1\n        /* \"contracts/Ticketing.sol\":3271:3280  _ticketId */\n      dup5\n        /* \"contracts/Ticketing.sol\":3263:3281  tickets[_ticketId] */\n      dup2\n      mstore\n      0x20\n      add\n      swap1\n      dup2\n      mstore\n      0x20\n      add\n      0x00\n      keccak256\n        /* \"contracts/Ticketing.sol\":3263:3288  tickets[_ticketId].status */\n      0x01\n      add\n      0x04\n        /* \"contracts/Ticketing.sol\":3263:3300  tickets[_ticketId].status = newStatus */\n      0x0100\n      exp\n      dup2\n      sload\n      dup2\n      0xff\n      mul\n      not\n      and\n      swap1\n      dup4\n      0x02\n      dup2\n      gt\n      iszero\n      tag_48\n      jumpi\n      tag_49\n      tag_32\n      jump\t// in\n    tag_49:\n    tag_48:\n      mul\n      or\n      swap1\n      sstore\n      pop\n        /* \"contracts/Ticketing.sol\":3392:3401  _ticketId */\n      dup2\n        /* \"contracts/Ticketing.sol\":3372:3413  TicketStatusUpdated(_ticketId, newStatus) */\n      0xc48439c7f713594efa50aa3d07ffc741e894ccd7af46eb1a434696f58d38e790\n        /* \"contracts/Ticketing.sol\":3403:3412  newStatus */\n      dup3\n        /* \"contracts/Ticketing.sol\":3372:3413  TicketStatusUpdated(_ticketId, newStatus) */\n      mload(0x40)\n      tag_50\n      swap2\n      swap1\n      tag_51\n      jump\t// in\n    tag_50:\n      mload(0x40)\n      dup1\n      swap2\n      sub\n      swap1\n      log2\n        /* \"contracts/Ticketing.sol\":3002:3421  function updateTicketStatus(bytes32 _ticketId, Status newStatus) external {... */\n      pop\n      pop\n      jump\t// out\n        /* \"contracts/Ticketing.sol\":1800:1841  mapping(bytes32 => Ticket) public tickets */\n    tag_23:\n      mstore(0x20, 0x00)\n      dup1\n      0x00\n      mstore\n      keccak256(0x00, 0x40)\n      0x00\n      swap2\n      pop\n      swap1\n      pop\n      dup1\n      0x00\n      add\n      sload\n      swap1\n      dup1\n      0x01\n      add\n      0x00\n      swap1\n      sload\n      swap1\n      0x0100\n      exp\n      swap1\n      div\n      0xffffffff\n      and\n      swap1\n      dup1\n      0x01\n      add\n      0x04\n      swap1\n      sload\n      swap1\n      0x0100\n      exp\n      swap1\n      div\n      0xff\n      and\n      swap1\n      dup1\n      0x01\n      add\n      0x05\n      swap1\n      sload\n      swap1\n      0x0100\n      exp\n      swap1\n      div\n      0xffffffffffffffff\n      and\n      swap1\n      dup1\n      0x02\n      add\n      sload\n      swap1\n      pop\n      dup6\n      jump\t// out\n        /* \"#utility.yul\":88:205   */\n    tag_53:\n        /* \"#utility.yul\":197:198   */\n      0x00\n        /* \"#utility.yul\":194:195   */\n      dup1\n        /* \"#utility.yul\":187:199   */\n      revert\n        /* \"#utility.yul\":334:411   */\n    tag_55:\n        /* \"#utility.yul\":371:378   */\n      0x00\n        /* \"#utility.yul\":400:405   */\n      dup2\n        /* \"#utility.yul\":389:405   */\n      swap1\n      pop\n        /* \"#utility.yul\":334:411   */\n      swap2\n      swap1\n      pop\n      jump\t// out\n        /* \"#utility.yul\":417:539   */\n    tag_56:\n        /* \"#utility.yul\":490:514   */\n      tag_86\n        /* \"#utility.yul\":508:513   */\n      dup2\n        /* \"#utility.yul\":490:514   */\n      tag_55\n      jump\t// in\n    tag_86:\n        /* \"#utility.yul\":483:488   */\n      dup2\n        /* \"#utility.yul\":480:515   */\n      eq\n        /* \"#utility.yul\":470:533   */\n      tag_87\n      jumpi\n        /* \"#utility.yul\":529:530   */\n      0x00\n        /* \"#utility.yul\":526:527   */\n      dup1\n        /* \"#utility.yul\":519:531   */\n      revert\n        /* \"#utility.yul\":470:533   */\n    tag_87:\n        /* \"#utility.yul\":417:539   */\n      pop\n      jump\t// out\n        /* \"#utility.yul\":545:684   */\n    tag_57:\n        /* \"#utility.yul\":591:596   */\n      0x00\n        /* \"#utility.yul\":629:635   */\n      dup2\n        /* \"#utility.yul\":616:636   */\n      calldataload\n        /* \"#utility.yul\":607:636   */\n      swap1\n      pop\n        /* \"#utility.yul\":645:678   */\n      tag_89\n        /* \"#utility.yul\":672:677   */\n      dup2\n        /* \"#utility.yul\":645:678   */\n      tag_56\n      jump\t// in\n    tag_89:\n        /* \"#utility.yul\":545:684   */\n      swap3\n      swap2\n      pop\n      pop\n      jump\t// out\n        /* \"#utility.yul\":690:783   */\n    tag_58:\n        /* \"#utility.yul\":726:733   */\n      0x00\n        /* \"#utility.yul\":766:776   */\n      0xffffffff\n        /* \"#utility.yul\":759:764   */\n      dup3\n        /* \"#utility.yul\":755:777   */\n      and\n        /* \"#utility.yul\":744:777   */\n      swap1\n      pop\n        /* \"#utility.yul\":690:783   */\n      swap2\n      swap1\n      pop\n      jump\t// out\n        /* \"#utility.yul\":789:909   */\n    tag_59:\n        /* \"#utility.yul\":861:884   */\n      tag_92\n        /* \"#utility.yul\":878:883   */\n      dup2\n        /* \"#utility.yul\":861:884   */\n      tag_58\n      jump\t// in\n    tag_92:\n        /* \"#utility.yul\":854:859   */\n      dup2\n        /* \"#utility.yul\":851:885   */\n      eq\n        /* \"#utility.yul\":841:903   */\n      tag_93\n      jumpi\n        /* \"#utility.yul\":899:900   */\n      0x00\n        /* \"#utility.yul\":896:897   */\n      dup1\n        /* \"#utility.yul\":889:901   */\n      revert\n        /* \"#utility.yul\":841:903   */\n    tag_93:\n        /* \"#utility.yul\":789:909   */\n      pop\n      jump\t// out\n        /* \"#utility.yul\":915:1052   */\n    tag_60:\n        /* \"#utility.yul\":960:965   */\n      0x00\n        /* \"#utility.yul\":998:1004   */\n      dup2\n        /* \"#utility.yul\":985:1005   */\n      calldataload\n        /* \"#utility.yul\":976:1005   */\n      swap1\n      pop\n        /* \"#utility.yul\":1014:1046   */\n      tag_95\n        /* \"#utility.yul\":1040:1045   */\n      dup2\n        /* \"#utility.yul\":1014:1046   */\n      tag_59\n      jump\t// in\n    tag_95:\n        /* \"#utility.yul\":915:1052   */\n      swap3\n      swap2\n      pop\n      pop\n      jump\t// out\n        /* \"#utility.yul\":1058:1159   */\n    tag_61:\n        /* \"#utility.yul\":1094:1101   */\n      0x00\n        /* \"#utility.yul\":1134:1152   */\n      0xffffffffffffffff\n        /* \"#utility.yul\":1127:1132   */\n      dup3\n        /* \"#utility.yul\":1123:1153   */\n      and\n        /* \"#utility.yul\":1112:1153   */\n      swap1\n      pop\n        /* \"#utility.yul\":1058:1159   */\n      swap2\n      swap1\n      pop\n      jump\t// out\n        /* \"#utility.yul\":1165:1285   */\n    tag_62:\n        /* \"#utility.yul\":1237:1260   */\n      tag_98\n        /* \"#utility.yul\":1254:1259   */\n      dup2\n        /* \"#utility.yul\":1237:1260   */\n      tag_61\n      jump\t// in\n    tag_98:\n        /* \"#utility.yul\":1230:1235   */\n      dup2\n        /* \"#utility.yul\":1227:1261   */\n      eq\n        /* \"#utility.yul\":1217:1279   */\n      tag_99\n      jumpi\n        /* \"#utility.yul\":1275:1276   */\n      0x00\n        /* \"#utility.yul\":1272:1273   */\n      dup1\n        /* \"#utility.yul\":1265:1277   */\n      revert\n        /* \"#utility.yul\":1217:1279   */\n    tag_99:\n        /* \"#utility.yul\":1165:1285   */\n      pop\n      jump\t// out\n        /* \"#utility.yul\":1291:1428   */\n    tag_63:\n        /* \"#utility.yul\":1336:1341   */\n      0x00\n        /* \"#utility.yul\":1374:1380   */\n      dup2\n        /* \"#utility.yul\":1361:1381   */\n      calldataload\n        /* \"#utility.yul\":1352:1381   */\n      swap1\n      pop\n        /* \"#utility.yul\":1390:1422   */\n      tag_101\n        /* \"#utility.yul\":1416:1421   */\n      dup2\n        /* \"#utility.yul\":1390:1422   */\n      tag_62\n      jump\t// in\n    tag_101:\n        /* \"#utility.yul\":1291:1428   */\n      swap3\n      swap2\n      pop\n      pop\n      jump\t// out\n        /* \"#utility.yul\":1434:2049   */\n    tag_9:\n        /* \"#utility.yul\":1509:1515   */\n      0x00\n        /* \"#utility.yul\":1517:1523   */\n      dup1\n        /* \"#utility.yul\":1525:1531   */\n      0x00\n        /* \"#utility.yul\":1574:1576   */\n      0x60\n        /* \"#utility.yul\":1562:1571   */\n      dup5\n        /* \"#utility.yul\":1553:1560   */\n      dup7\n        /* \"#utility.yul\":1549:1572   */\n      sub\n        /* \"#utility.yul\":1545:1577   */\n      slt\n        /* \"#utility.yul\":1542:1661   */\n      iszero\n      tag_103\n      jumpi\n        /* \"#utility.yul\":1580:1659   */\n      tag_104\n      tag_53\n      jump\t// in\n    tag_104:\n        /* \"#utility.yul\":1542:1661   */\n    tag_103:\n        /* \"#utility.yul\":1700:1701   */\n      0x00\n        /* \"#utility.yul\":1725:1778   */\n      tag_105\n        /* \"#utility.yul\":1770:1777   */\n      dup7\n        /* \"#utility.yul\":1761:1767   */\n      dup3\n        /* \"#utility.yul\":1750:1759   */\n      dup8\n        /* \"#utility.yul\":1746:1768   */\n      add\n        /* \"#utility.yul\":1725:1778   */\n      tag_57\n      jump\t// in\n    tag_105:\n        /* \"#utility.yul\":1715:1778   */\n      swap4\n      pop\n        /* \"#utility.yul\":1671:1788   */\n      pop\n        /* \"#utility.yul\":1827:1829   */\n      0x20\n        /* \"#utility.yul\":1853:1905   */\n      tag_106\n        /* \"#utility.yul\":1897:1904   */\n      dup7\n        /* \"#utility.yul\":1888:1894   */\n      dup3\n        /* \"#utility.yul\":1877:1886   */\n      dup8\n        /* \"#utility.yul\":1873:1895   */\n      add\n        /* \"#utility.yul\":1853:1905   */\n      tag_60\n      jump\t// in\n    tag_106:\n        /* \"#utility.yul\":1843:1905   */\n      swap3\n      pop\n        /* \"#utility.yul\":1798:1915   */\n      pop\n        /* \"#utility.yul\":1954:1956   */\n      0x40\n        /* \"#utility.yul\":1980:2032   */\n      tag_107\n        /* \"#utility.yul\":2024:2031   */\n      dup7\n        /* \"#utility.yul\":2015:2021   */\n      dup3\n        /* \"#utility.yul\":2004:2013   */\n      dup8\n        /* \"#utility.yul\":2000:2022   */\n      add\n        /* \"#utility.yul\":1980:2032   */\n      tag_63\n      jump\t// in\n    tag_107:\n        /* \"#utility.yul\":1970:2032   */\n      swap2\n      pop\n        /* \"#utility.yul\":1925:2042   */\n      pop\n        /* \"#utility.yul\":1434:2049   */\n      swap3\n      pop\n      swap3\n      pop\n      swap3\n      jump\t// out\n        /* \"#utility.yul\":2055:2384   */\n    tag_13:\n        /* \"#utility.yul\":2114:2120   */\n      0x00\n        /* \"#utility.yul\":2163:2165   */\n      0x20\n        /* \"#utility.yul\":2151:2160   */\n      dup3\n        /* \"#utility.yul\":2142:2149   */\n      dup5\n        /* \"#utility.yul\":2138:2161   */\n      sub\n        /* \"#utility.yul\":2134:2166   */\n      slt\n        /* \"#utility.yul\":2131:2250   */\n      iszero\n      tag_109\n      jumpi\n        /* \"#utility.yul\":2169:2248   */\n      tag_110\n      tag_53\n      jump\t// in\n    tag_110:\n        /* \"#utility.yul\":2131:2250   */\n    tag_109:\n        /* \"#utility.yul\":2289:2290   */\n      0x00\n        /* \"#utility.yul\":2314:2367   */\n      tag_111\n        /* \"#utility.yul\":2359:2366   */\n      dup5\n        /* \"#utility.yul\":2350:2356   */\n      dup3\n        /* \"#utility.yul\":2339:2348   */\n      dup6\n        /* \"#utility.yul\":2335:2357   */\n      add\n        /* \"#utility.yul\":2314:2367   */\n      tag_57\n      jump\t// in\n    tag_111:\n        /* \"#utility.yul\":2304:2367   */\n      swap2\n      pop\n        /* \"#utility.yul\":2260:2377   */\n      pop\n        /* \"#utility.yul\":2055:2384   */\n      swap3\n      swap2\n      pop\n      pop\n      jump\t// out\n        /* \"#utility.yul\":2390:2505   */\n    tag_64:\n        /* \"#utility.yul\":2475:2498   */\n      tag_113\n        /* \"#utility.yul\":2492:2497   */\n      dup2\n        /* \"#utility.yul\":2475:2498   */\n      tag_58\n      jump\t// in\n    tag_113:\n        /* \"#utility.yul\":2470:2473   */\n      dup3\n        /* \"#utility.yul\":2463:2499   */\n      mstore\n        /* \"#utility.yul\":2390:2505   */\n      pop\n      pop\n      jump\t// out\n        /* \"#utility.yul\":2511:2691   */\n    tag_32:\n        /* \"#utility.yul\":2559:2636   */\n      0x4e487b7100000000000000000000000000000000000000000000000000000000\n        /* \"#utility.yul\":2556:2557   */\n      0x00\n        /* \"#utility.yul\":2549:2637   */\n      mstore\n        /* \"#utility.yul\":2656:2660   */\n      0x21\n        /* \"#utility.yul\":2653:2654   */\n      0x04\n        /* \"#utility.yul\":2646:2661   */\n      mstore\n        /* \"#utility.yul\":2680:2684   */\n      0x24\n        /* \"#utility.yul\":2677:2678   */\n      0x00\n        /* \"#utility.yul\":2670:2685   */\n      revert\n        /* \"#utility.yul\":2697:2810   */\n    tag_65:\n        /* \"#utility.yul\":2778:2779   */\n      0x03\n        /* \"#utility.yul\":2771:2776   */\n      dup2\n        /* \"#utility.yul\":2768:2780   */\n      lt\n        /* \"#utility.yul\":2758:2804   */\n      tag_116\n      jumpi\n        /* \"#utility.yul\":2784:2802   */\n      tag_117\n      tag_32\n      jump\t// in\n    tag_117:\n        /* \"#utility.yul\":2758:2804   */\n    tag_116:\n        /* \"#utility.yul\":2697:2810   */\n      pop\n      jump\t// out\n        /* \"#utility.yul\":2816:2943   */\n    tag_66:\n        /* \"#utility.yul\":2861:2868   */\n      0x00\n        /* \"#utility.yul\":2890:2895   */\n      dup2\n        /* \"#utility.yul\":2879:2895   */\n      swap1\n      pop\n        /* \"#utility.yul\":2896:2937   */\n      tag_119\n        /* \"#utility.yul\":2931:2936   */\n      dup3\n        /* \"#utility.yul\":2896:2937   */\n      tag_65\n      jump\t// in\n    tag_119:\n        /* \"#utility.yul\":2816:2943   */\n      swap2\n      swap1\n      pop\n      jump\t// out\n        /* \"#utility.yul\":2949:3076   */\n    tag_67:\n        /* \"#utility.yul\":3005:3014   */\n      0x00\n        /* \"#utility.yul\":3038:3070   */\n      tag_121\n        /* \"#utility.yul\":3064:3069   */\n      dup3\n        /* \"#utility.yul\":3038:3070   */\n      tag_66\n      jump\t// in\n    tag_121:\n        /* \"#utility.yul\":3025:3070   */\n      swap1\n      pop\n        /* \"#utility.yul\":2949:3076   */\n      swap2\n      swap1\n      pop\n      jump\t// out\n        /* \"#utility.yul\":3082:3225   */\n    tag_68:\n        /* \"#utility.yul\":3175:3218   */\n      tag_123\n        /* \"#utility.yul\":3212:3217   */\n      dup2\n        /* \"#utility.yul\":3175:3218   */\n      tag_67\n      jump\t// in\n    tag_123:\n        /* \"#utility.yul\":3170:3173   */\n      dup3\n        /* \"#utility.yul\":3163:3219   */\n      mstore\n        /* \"#utility.yul\":3082:3225   */\n      pop\n      pop\n      jump\t// out\n        /* \"#utility.yul\":3231:3346   */\n    tag_69:\n        /* \"#utility.yul\":3316:3339   */\n      tag_125\n        /* \"#utility.yul\":3333:3338   */\n      dup2\n        /* \"#utility.yul\":3316:3339   */\n      tag_61\n      jump\t// in\n    tag_125:\n        /* \"#utility.yul\":3311:3314   */\n      dup3\n        /* \"#utility.yul\":3304:3340   */\n      mstore\n        /* \"#utility.yul\":3231:3346   */\n      pop\n      pop\n      jump\t// out\n        /* \"#utility.yul\":3352:3429   */\n    tag_70:\n        /* \"#utility.yul\":3389:3396   */\n      0x00\n        /* \"#utility.yul\":3418:3423   */\n      dup2\n        /* \"#utility.yul\":3407:3423   */\n      swap1\n      pop\n        /* \"#utility.yul\":3352:3429   */\n      swap2\n      swap1\n      pop\n      jump\t// out\n        /* \"#utility.yul\":3435:3553   */\n    tag_71:\n        /* \"#utility.yul\":3522:3546   */\n      tag_128\n        /* \"#utility.yul\":3540:3545   */\n      dup2\n        /* \"#utility.yul\":3522:3546   */\n      tag_70\n      jump\t// in\n    tag_128:\n        /* \"#utility.yul\":3517:3520   */\n      dup3\n        /* \"#utility.yul\":3510:3547   */\n      mstore\n        /* \"#utility.yul\":3435:3553   */\n      pop\n      pop\n      jump\t// out\n        /* \"#utility.yul\":3559:4116   */\n    tag_16:\n        /* \"#utility.yul\":3738:3742   */\n      0x00\n        /* \"#utility.yul\":3776:3779   */\n      0x80\n        /* \"#utility.yul\":3765:3774   */\n      dup3\n        /* \"#utility.yul\":3761:3780   */\n      add\n        /* \"#utility.yul\":3753:3780   */\n      swap1\n      pop\n        /* \"#utility.yul\":3790:3859   */\n      tag_130\n        /* \"#utility.yul\":3856:3857   */\n      0x00\n        /* \"#utility.yul\":3845:3854   */\n      dup4\n        /* \"#utility.yul\":3841:3858   */\n      add\n        /* \"#utility.yul\":3832:3838   */\n      dup8\n        /* \"#utility.yul\":3790:3859   */\n      tag_64\n      jump\t// in\n    tag_130:\n        /* \"#utility.yul\":3869:3947   */\n      tag_131\n        /* \"#utility.yul\":3943:3945   */\n      0x20\n        /* \"#utility.yul\":3932:3941   */\n      dup4\n        /* \"#utility.yul\":3928:3946   */\n      add\n        /* \"#utility.yul\":3919:3925   */\n      dup7\n        /* \"#utility.yul\":3869:3947   */\n      tag_68\n      jump\t// in\n    tag_131:\n        /* \"#utility.yul\":3957:4027   */\n      tag_132\n        /* \"#utility.yul\":4023:4025   */\n      0x40\n        /* \"#utility.yul\":4012:4021   */\n      dup4\n        /* \"#utility.yul\":4008:4026   */\n      add\n        /* \"#utility.yul\":3999:4005   */\n      dup6\n        /* \"#utility.yul\":3957:4027   */\n      tag_69\n      jump\t// in\n    tag_132:\n        /* \"#utility.yul\":4037:4109   */\n      tag_133\n        /* \"#utility.yul\":4105:4107   */\n      0x60\n        /* \"#utility.yul\":4094:4103   */\n      dup4\n        /* \"#utility.yul\":4090:4108   */\n      add\n        /* \"#utility.yul\":4081:4087   */\n      dup5\n        /* \"#utility.yul\":4037:4109   */\n      tag_71\n      jump\t// in\n    tag_133:\n        /* \"#utility.yul\":3559:4116   */\n      swap6\n      swap5\n      pop\n      pop\n      pop\n      pop\n      pop\n      jump\t// out\n        /* \"#utility.yul\":4122:4229   */\n    tag_72:\n        /* \"#utility.yul\":4203:4204   */\n      0x03\n        /* \"#utility.yul\":4196:4201   */\n      dup2\n        /* \"#utility.yul\":4193:4205   */\n      lt\n        /* \"#utility.yul\":4183:4223   */\n      tag_135\n      jumpi\n        /* \"#utility.yul\":4219:4220   */\n      0x00\n        /* \"#utility.yul\":4216:4217   */\n      dup1\n        /* \"#utility.yul\":4209:4221   */\n      revert\n        /* \"#utility.yul\":4183:4223   */\n    tag_135:\n        /* \"#utility.yul\":4122:4229   */\n      pop\n      jump\t// out\n        /* \"#utility.yul\":4235:4390   */\n    tag_73:\n        /* \"#utility.yul\":4289:4294   */\n      0x00\n        /* \"#utility.yul\":4327:4333   */\n      dup2\n        /* \"#utility.yul\":4314:4334   */\n      calldataload\n        /* \"#utility.yul\":4305:4334   */\n      swap1\n      pop\n        /* \"#utility.yul\":4343:4384   */\n      tag_137\n        /* \"#utility.yul\":4378:4383   */\n      dup2\n        /* \"#utility.yul\":4343:4384   */\n      tag_72\n      jump\t// in\n    tag_137:\n        /* \"#utility.yul\":4235:4390   */\n      swap3\n      swap2\n      pop\n      pop\n      jump\t// out\n        /* \"#utility.yul\":4396:4886   */\n    tag_19:\n        /* \"#utility.yul\":4472:4478   */\n      0x00\n        /* \"#utility.yul\":4480:4486   */\n      dup1\n        /* \"#utility.yul\":4529:4531   */\n      0x40\n        /* \"#utility.yul\":4517:4526   */\n      dup4\n        /* \"#utility.yul\":4508:4515   */\n      dup6\n        /* \"#utility.yul\":4504:4527   */\n      sub\n        /* \"#utility.yul\":4500:4532   */\n      slt\n        /* \"#utility.yul\":4497:4616   */\n      iszero\n      tag_139\n      jumpi\n        /* \"#utility.yul\":4535:4614   */\n      tag_140\n      tag_53\n      jump\t// in\n    tag_140:\n        /* \"#utility.yul\":4497:4616   */\n    tag_139:\n        /* \"#utility.yul\":4655:4656   */\n      0x00\n        /* \"#utility.yul\":4680:4733   */\n      tag_141\n        /* \"#utility.yul\":4725:4732   */\n      dup6\n        /* \"#utility.yul\":4716:4722   */\n      dup3\n        /* \"#utility.yul\":4705:4714   */\n      dup7\n        /* \"#utility.yul\":4701:4723   */\n      add\n        /* \"#utility.yul\":4680:4733   */\n      tag_57\n      jump\t// in\n    tag_141:\n        /* \"#utility.yul\":4670:4733   */\n      swap3\n      pop\n        /* \"#utility.yul\":4626:4743   */\n      pop\n        /* \"#utility.yul\":4782:4784   */\n      0x20\n        /* \"#utility.yul\":4808:4869   */\n      tag_142\n        /* \"#utility.yul\":4861:4868   */\n      dup6\n        /* \"#utility.yul\":4852:4858   */\n      dup3\n        /* \"#utility.yul\":4841:4850   */\n      dup7\n        /* \"#utility.yul\":4837:4859   */\n      add\n        /* \"#utility.yul\":4808:4869   */\n      tag_73\n      jump\t// in\n    tag_142:\n        /* \"#utility.yul\":4798:4869   */\n      swap2\n      pop\n        /* \"#utility.yul\":4753:4879   */\n      pop\n        /* \"#utility.yul\":4396:4886   */\n      swap3\n      pop\n      swap3\n      swap1\n      pop\n      jump\t// out\n        /* \"#utility.yul\":4892:5010   */\n    tag_74:\n        /* \"#utility.yul\":4979:5003   */\n      tag_144\n        /* \"#utility.yul\":4997:5002   */\n      dup2\n        /* \"#utility.yul\":4979:5003   */\n      tag_55\n      jump\t// in\n    tag_144:\n        /* \"#utility.yul\":4974:4977   */\n      dup3\n        /* \"#utility.yul\":4967:5004   */\n      mstore\n        /* \"#utility.yul\":4892:5010   */\n      pop\n      pop\n      jump\t// out\n        /* \"#utility.yul\":5016:5684   */\n    tag_25:\n        /* \"#utility.yul\":5223:5227   */\n      0x00\n        /* \"#utility.yul\":5261:5264   */\n      0xa0\n        /* \"#utility.yul\":5250:5259   */\n      dup3\n        /* \"#utility.yul\":5246:5265   */\n      add\n        /* \"#utility.yul\":5238:5265   */\n      swap1\n      pop\n        /* \"#utility.yul\":5275:5346   */\n      tag_146\n        /* \"#utility.yul\":5343:5344   */\n      0x00\n        /* \"#utility.yul\":5332:5341   */\n      dup4\n        /* \"#utility.yul\":5328:5345   */\n      add\n        /* \"#utility.yul\":5319:5325   */\n      dup9\n        /* \"#utility.yul\":5275:5346   */\n      tag_74\n      jump\t// in\n    tag_146:\n        /* \"#utility.yul\":5356:5426   */\n      tag_147\n        /* \"#utility.yul\":5422:5424   */\n      0x20\n        /* \"#utility.yul\":5411:5420   */\n      dup4\n        /* \"#utility.yul\":5407:5425   */\n      add\n        /* \"#utility.yul\":5398:5404   */\n      dup8\n        /* \"#utility.yul\":5356:5426   */\n      tag_64\n      jump\t// in\n    tag_147:\n        /* \"#utility.yul\":5436:5514   */\n      tag_148\n        /* \"#utility.yul\":5510:5512   */\n      0x40\n        /* \"#utility.yul\":5499:5508   */\n      dup4\n        /* \"#utility.yul\":5495:5513   */\n      add\n        /* \"#utility.yul\":5486:5492   */\n      dup7\n        /* \"#utility.yul\":5436:5514   */\n      tag_68\n      jump\t// in\n    tag_148:\n        /* \"#utility.yul\":5524:5594   */\n      tag_149\n        /* \"#utility.yul\":5590:5592   */\n      0x60\n        /* \"#utility.yul\":5579:5588   */\n      dup4\n        /* \"#utility.yul\":5575:5593   */\n      add\n        /* \"#utility.yul\":5566:5572   */\n      dup6\n        /* \"#utility.yul\":5524:5594   */\n      tag_69\n      jump\t// in\n    tag_149:\n        /* \"#utility.yul\":5604:5677   */\n      tag_150\n        /* \"#utility.yul\":5672:5675   */\n      0x80\n        /* \"#utility.yul\":5661:5670   */\n      dup4\n        /* \"#utility.yul\":5657:5676   */\n      add\n        /* \"#utility.yul\":5648:5654   */\n      dup5\n        /* \"#utility.yul\":5604:5677   */\n      tag_71\n      jump\t// in\n    tag_150:\n        /* \"#utility.yul\":5016:5684   */\n      swap7\n      swap6\n      pop\n      pop\n      pop\n      pop\n      pop\n      pop\n      jump\t// out\n        /* \"#utility.yul\":5690:5859   */\n    tag_75:\n        /* \"#utility.yul\":5774:5785   */\n      0x00\n        /* \"#utility.yul\":5808:5814   */\n      dup3\n        /* \"#utility.yul\":5803:5806   */\n      dup3\n        /* \"#utility.yul\":5796:5815   */\n      mstore\n        /* \"#utility.yul\":5848:5852   */\n      0x20\n        /* \"#utility.yul\":5843:5846   */\n      dup3\n        /* \"#utility.yul\":5839:5853   */\n      add\n        /* \"#utility.yul\":5824:5853   */\n      swap1\n      pop\n        /* \"#utility.yul\":5690:5859   */\n      swap3\n      swap2\n      pop\n      pop\n      jump\t// out\n        /* \"#utility.yul\":5865:6036   */\n    tag_76:\n        /* \"#utility.yul\":6005:6028   */\n      0x5469636b657420616c7265616479206578697374730000000000000000000000\n        /* \"#utility.yul\":6001:6002   */\n      0x00\n        /* \"#utility.yul\":5993:5999   */\n      dup3\n        /* \"#utility.yul\":5989:6003   */\n      add\n        /* \"#utility.yul\":5982:6029   */\n      mstore\n        /* \"#utility.yul\":5865:6036   */\n      pop\n      jump\t// out\n        /* \"#utility.yul\":6042:6408   */\n    tag_77:\n        /* \"#utility.yul\":6184:6187   */\n      0x00\n        /* \"#utility.yul\":6205:6272   */\n      tag_154\n        /* \"#utility.yul\":6269:6271   */\n      0x15\n        /* \"#utility.yul\":6264:6267   */\n      dup4\n        /* \"#utility.yul\":6205:6272   */\n      tag_75\n      jump\t// in\n    tag_154:\n        /* \"#utility.yul\":6198:6272   */\n      swap2\n      pop\n        /* \"#utility.yul\":6281:6374   */\n      tag_155\n        /* \"#utility.yul\":6370:6373   */\n      dup3\n        /* \"#utility.yul\":6281:6374   */\n      tag_76\n      jump\t// in\n    tag_155:\n        /* \"#utility.yul\":6399:6401   */\n      0x20\n        /* \"#utility.yul\":6394:6397   */\n      dup3\n        /* \"#utility.yul\":6390:6402   */\n      add\n        /* \"#utility.yul\":6383:6402   */\n      swap1\n      pop\n        /* \"#utility.yul\":6042:6408   */\n      swap2\n      swap1\n      pop\n      jump\t// out\n        /* \"#utility.yul\":6414:6833   */\n    tag_29:\n        /* \"#utility.yul\":6580:6584   */\n      0x00\n        /* \"#utility.yul\":6618:6620   */\n      0x20\n        /* \"#utility.yul\":6607:6616   */\n      dup3\n        /* \"#utility.yul\":6603:6621   */\n      add\n        /* \"#utility.yul\":6595:6621   */\n      swap1\n      pop\n        /* \"#utility.yul\":6667:6676   */\n      dup2\n        /* \"#utility.yul\":6661:6665   */\n      dup2\n        /* \"#utility.yul\":6657:6677   */\n      sub\n        /* \"#utility.yul\":6653:6654   */\n      0x00\n        /* \"#utility.yul\":6642:6651   */\n      dup4\n        /* \"#utility.yul\":6638:6655   */\n      add\n        /* \"#utility.yul\":6631:6678   */\n      mstore\n        /* \"#utility.yul\":6695:6826   */\n      tag_157\n        /* \"#utility.yul\":6821:6825   */\n      dup2\n        /* \"#utility.yul\":6695:6826   */\n      tag_77\n      jump\t// in\n    tag_157:\n        /* \"#utility.yul\":6687:6826   */\n      swap1\n      pop\n        /* \"#utility.yul\":6414:6833   */\n      swap2\n      swap1\n      pop\n      jump\t// out\n        /* \"#utility.yul\":6839:7273   */\n    tag_36:\n        /* \"#utility.yul\":6984:6988   */\n      0x00\n        /* \"#utility.yul\":7022:7024   */\n      0x60\n        /* \"#utility.yul\":7011:7020   */\n      dup3\n        /* \"#utility.yul\":7007:7025   */\n      add\n        /* \"#utility.yul\":6999:7025   */\n      swap1\n      pop\n        /* \"#utility.yul\":7035:7104   */\n      tag_159\n        /* \"#utility.yul\":7101:7102   */\n      0x00\n        /* \"#utility.yul\":7090:7099   */\n      dup4\n        /* \"#utility.yul\":7086:7103   */\n      add\n        /* \"#utility.yul\":7077:7083   */\n      dup7\n        /* \"#utility.yul\":7035:7104   */\n      tag_64\n      jump\t// in\n    tag_159:\n        /* \"#utility.yul\":7114:7184   */\n      tag_160\n        /* \"#utility.yul\":7180:7182   */\n      0x20\n        /* \"#utility.yul\":7169:7178   */\n      dup4\n        /* \"#utility.yul\":7165:7183   */\n      add\n        /* \"#utility.yul\":7156:7162   */\n      dup6\n        /* \"#utility.yul\":7114:7184   */\n      tag_69\n      jump\t// in\n    tag_160:\n        /* \"#utility.yul\":7194:7266   */\n      tag_161\n        /* \"#utility.yul\":7262:7264   */\n      0x40\n        /* \"#utility.yul\":7251:7260   */\n      dup4\n        /* \"#utility.yul\":7247:7265   */\n      add\n        /* \"#utility.yul\":7238:7244   */\n      dup5\n        /* \"#utility.yul\":7194:7266   */\n      tag_71\n      jump\t// in\n    tag_161:\n        /* \"#utility.yul\":6839:7273   */\n      swap5\n      swap4\n      pop\n      pop\n      pop\n      pop\n      jump\t// out\n        /* \"#utility.yul\":7279:7446   */\n    tag_78:\n        /* \"#utility.yul\":7419:7438   */\n      0x496e76616c6964207469636b6574204944000000000000000000000000000000\n        /* \"#utility.yul\":7415:7416   */\n      0x00\n        /* \"#utility.yul\":7407:7413   */\n      dup3\n        /* \"#utility.yul\":7403:7417   */\n      add\n        /* \"#utility.yul\":7396:7439   */\n      mstore\n        /* \"#utility.yul\":7279:7446   */\n      pop\n      jump\t// out\n        /* \"#utility.yul\":7452:7818   */\n    tag_79:\n        /* \"#utility.yul\":7594:7597   */\n      0x00\n        /* \"#utility.yul\":7615:7682   */\n      tag_164\n        /* \"#utility.yul\":7679:7681   */\n      0x11\n        /* \"#utility.yul\":7674:7677   */\n      dup4\n        /* \"#utility.yul\":7615:7682   */\n      tag_75\n      jump\t// in\n    tag_164:\n        /* \"#utility.yul\":7608:7682   */\n      swap2\n      pop\n        /* \"#utility.yul\":7691:7784   */\n      tag_165\n        /* \"#utility.yul\":7780:7783   */\n      dup3\n        /* \"#utility.yul\":7691:7784   */\n      tag_78\n      jump\t// in\n    tag_165:\n        /* \"#utility.yul\":7809:7811   */\n      0x20\n        /* \"#utility.yul\":7804:7807   */\n      dup3\n        /* \"#utility.yul\":7800:7812   */\n      add\n        /* \"#utility.yul\":7793:7812   */\n      swap1\n      pop\n        /* \"#utility.yul\":7452:7818   */\n      swap2\n      swap1\n      pop\n      jump\t// out\n        /* \"#utility.yul\":7824:8243   */\n    tag_40:\n        /* \"#utility.yul\":7990:7994   */\n      0x00\n        /* \"#utility.yul\":8028:8030   */\n      0x20\n        /* \"#utility.yul\":8017:8026   */\n      dup3\n        /* \"#utility.yul\":8013:8031   */\n      add\n        /* \"#utility.yul\":8005:8031   */\n      swap1\n      pop\n        /* \"#utility.yul\":8077:8086   */\n      dup2\n        /* \"#utility.yul\":8071:8075   */\n      dup2\n        /* \"#utility.yul\":8067:8087   */\n      sub\n        /* \"#utility.yul\":8063:8064   */\n      0x00\n        /* \"#utility.yul\":8052:8061   */\n      dup4\n        /* \"#utility.yul\":8048:8065   */\n      add\n        /* \"#utility.yul\":8041:8088   */\n      mstore\n        /* \"#utility.yul\":8105:8236   */\n      tag_167\n        /* \"#utility.yul\":8231:8235   */\n      dup2\n        /* \"#utility.yul\":8105:8236   */\n      tag_79\n      jump\t// in\n    tag_167:\n        /* \"#utility.yul\":8097:8236   */\n      swap1\n      pop\n        /* \"#utility.yul\":7824:8243   */\n      swap2\n      swap1\n      pop\n      jump\t// out\n        /* \"#utility.yul\":8249:8483   */\n    tag_51:\n        /* \"#utility.yul\":8348:8352   */\n      0x00\n        /* \"#utility.yul\":8386:8388   */\n      0x20\n        /* \"#utility.yul\":8375:8384   */\n      dup3\n        /* \"#utility.yul\":8371:8389   */\n      add\n        /* \"#utility.yul\":8363:8389   */\n      swap1\n      pop\n        /* \"#utility.yul\":8399:8476   */\n      tag_169\n        /* \"#utility.yul\":8473:8474   */\n      0x00\n        /* \"#utility.yul\":8462:8471   */\n      dup4\n        /* \"#utility.yul\":8458:8475   */\n      add\n        /* \"#utility.yul\":8449:8455   */\n      dup5\n        /* \"#utility.yul\":8399:8476   */\n      tag_68\n      jump\t// in\n    tag_169:\n        /* \"#utility.yul\":8249:8483   */\n      swap3\n      swap2\n      pop\n      pop\n      jump\t// out\n\n    auxdata: 0xa2646970667358221220eca57f12756a8bc7ab7b17cbb401c42fb21c6cb36a9778edab354a0bc77f868964736f6c634300081a0033\n}\n",
				"bytecode": {
					"linkReferences": {},
					"object": "6080604052348015600e575f80fd5b506109198061001c5f395ff3fe608060405234801561000f575f80fd5b506004361061004a575f3560e01c80638707fbfe1461004e578063b64dec651461006a578063cda240311461009d578063df0dd0d5146100b9575b5f80fd5b6100686004803603810190610063919061058d565b6100ed565b005b610084600480360381019061007f91906105dd565b610275565b60405161009494939291906106b1565b60405180910390f35b6100b760048036038101906100b29190610717565b6103b4565b005b6100d360048036038101906100ce91906105dd565b61047f565b6040516100e4959493929190610764565b60405180910390f35b825f808581526020019081526020015f205f015403610141576040517f08c379a00000000000000000000000000000000000000000000000000000000081526004016101389061080f565b60405180910390fd5b6040518060a001604052808481526020018363ffffffff1681526020015f600281111561017157610170610617565b5b81526020018267ffffffffffffffff168152602001428152505f808581526020019081526020015f205f820151815f01556020820151816001015f6101000a81548163ffffffff021916908363ffffffff16021790555060408201518160010160046101000a81548160ff021916908360028111156101f3576101f2610617565b5b021790555060608201518160010160056101000a81548167ffffffffffffffff021916908367ffffffffffffffff16021790555060808201518160020155905050827f35275d029244fa5c0d430ac38ffb3793c7e924907fba98f96b63ef472c999cca8383426040516102689392919061082d565b60405180910390a2505050565b5f805f80845f808781526020019081526020015f205f0154146102cd576040517f08c379a00000000000000000000000000000000000000000000000000000000081526004016102c4906108ac565b60405180910390fd5b5f805f8781526020019081526020015f206040518060a00160405290815f8201548152602001600182015f9054906101000a900463ffffffff1663ffffffff1663ffffffff1681526020016001820160049054906101000a900460ff16600281111561033c5761033b610617565b5b600281111561034e5761034d610617565b5b81526020016001820160059054906101000a900467ffffffffffffffff1667ffffffffffffffff1667ffffffffffffffff168152602001600282015481525050905080602001518160400151826060015183608001519450945094509450509193509193565b815f808481526020019081526020015f205f015414610408576040517f08c379a00000000000000000000000000000000000000000000000000000000081526004016103ff906108ac565b60405180910390fd5b805f808481526020019081526020015f2060010160046101000a81548160ff0219169083600281111561043e5761043d610617565b5b0217905550817fc48439c7f713594efa50aa3d07ffc741e894ccd7af46eb1a434696f58d38e7908260405161047391906108ca565b60405180910390a25050565b5f602052805f5260405f205f91509050805f015490806001015f9054906101000a900463ffffffff16908060010160049054906101000a900460ff16908060010160059054906101000a900467ffffffffffffffff16908060020154905085565b5f80fd5b5f819050919050565b6104f6816104e4565b8114610500575f80fd5b50565b5f81359050610511816104ed565b92915050565b5f63ffffffff82169050919050565b61052f81610517565b8114610539575f80fd5b50565b5f8135905061054a81610526565b92915050565b5f67ffffffffffffffff82169050919050565b61056c81610550565b8114610576575f80fd5b50565b5f8135905061058781610563565b92915050565b5f805f606084860312156105a4576105a36104e0565b5b5f6105b186828701610503565b93505060206105c28682870161053c565b92505060406105d386828701610579565b9150509250925092565b5f602082840312156105f2576105f16104e0565b5b5f6105ff84828501610503565b91505092915050565b61061181610517565b82525050565b7f4e487b71000000000000000000000000000000000000000000000000000000005f52602160045260245ffd5b6003811061065557610654610617565b5b50565b5f81905061066582610644565b919050565b5f61067482610658565b9050919050565b6106848161066a565b82525050565b61069381610550565b82525050565b5f819050919050565b6106ab81610699565b82525050565b5f6080820190506106c45f830187610608565b6106d1602083018661067b565b6106de604083018561068a565b6106eb60608301846106a2565b95945050505050565b60038110610700575f80fd5b50565b5f81359050610711816106f4565b92915050565b5f806040838503121561072d5761072c6104e0565b5b5f61073a85828601610503565b925050602061074b85828601610703565b9150509250929050565b61075e816104e4565b82525050565b5f60a0820190506107775f830188610755565b6107846020830187610608565b610791604083018661067b565b61079e606083018561068a565b6107ab60808301846106a2565b9695505050505050565b5f82825260208201905092915050565b7f5469636b657420616c72656164792065786973747300000000000000000000005f82015250565b5f6107f96015836107b5565b9150610804826107c5565b602082019050919050565b5f6020820190508181035f830152610826816107ed565b9050919050565b5f6060820190506108405f830186610608565b61084d602083018561068a565b61085a60408301846106a2565b949350505050565b7f496e76616c6964207469636b65742049440000000000000000000000000000005f82015250565b5f6108966011836107b5565b91506108a182610862565b602082019050919050565b5f6020820190508181035f8301526108c38161088a565b9050919050565b5f6020820190506108dd5f83018461067b565b9291505056fea2646970667358221220eca57f12756a8bc7ab7b17cbb401c42fb21c6cb36a9778edab354a0bc77f868964736f6c634300081a0033",
					"opcodes": "PUSH1 0x80 PUSH1 0x40 MSTORE CALLVALUE DUP1 ISZERO PUSH1 0xE JUMPI PUSH0 DUP1 REVERT JUMPDEST POP PUSH2 0x919 DUP1 PUSH2 0x1C PUSH0 CODECOPY PUSH0 RETURN INVALID PUSH1 0x80 PUSH1 0x40 MSTORE CALLVALUE DUP1 ISZERO PUSH2 0xF JUMPI PUSH0 DUP1 REVERT JUMPDEST POP PUSH1 0x4 CALLDATASIZE LT PUSH2 0x4A JUMPI PUSH0 CALLDATALOAD PUSH1 0xE0 SHR DUP1 PUSH4 0x8707FBFE EQ PUSH2 0x4E JUMPI DUP1 PUSH4 0xB64DEC65 EQ PUSH2 0x6A JUMPI DUP1 PUSH4 0xCDA24031 EQ PUSH2 0x9D JUMPI DUP1 PUSH4 0xDF0DD0D5 EQ PUSH2 0xB9 JUMPI JUMPDEST PUSH0 DUP1 REVERT JUMPDEST PUSH2 0x68 PUSH1 0x4 DUP1 CALLDATASIZE SUB DUP2 ADD SWAP1 PUSH2 0x63 SWAP2 SWAP1 PUSH2 0x58D JUMP JUMPDEST PUSH2 0xED JUMP JUMPDEST STOP JUMPDEST PUSH2 0x84 PUSH1 0x4 DUP1 CALLDATASIZE SUB DUP2 ADD SWAP1 PUSH2 0x7F SWAP2 SWAP1 PUSH2 0x5DD JUMP JUMPDEST PUSH2 0x275 JUMP JUMPDEST PUSH1 0x40 MLOAD PUSH2 0x94 SWAP5 SWAP4 SWAP3 SWAP2 SWAP1 PUSH2 0x6B1 JUMP JUMPDEST PUSH1 0x40 MLOAD DUP1 SWAP2 SUB SWAP1 RETURN JUMPDEST PUSH2 0xB7 PUSH1 0x4 DUP1 CALLDATASIZE SUB DUP2 ADD SWAP1 PUSH2 0xB2 SWAP2 SWAP1 PUSH2 0x717 JUMP JUMPDEST PUSH2 0x3B4 JUMP JUMPDEST STOP JUMPDEST PUSH2 0xD3 PUSH1 0x4 DUP1 CALLDATASIZE SUB DUP2 ADD SWAP1 PUSH2 0xCE SWAP2 SWAP1 PUSH2 0x5DD JUMP JUMPDEST PUSH2 0x47F JUMP JUMPDEST PUSH1 0x40 MLOAD PUSH2 0xE4 SWAP6 SWAP5 SWAP4 SWAP3 SWAP2 SWAP1 PUSH2 0x764 JUMP JUMPDEST PUSH1 0x40 MLOAD DUP1 SWAP2 SUB SWAP1 RETURN JUMPDEST DUP3 PUSH0 DUP1 DUP6 DUP2 MSTORE PUSH1 0x20 ADD SWAP1 DUP2 MSTORE PUSH1 0x20 ADD PUSH0 KECCAK256 PUSH0 ADD SLOAD SUB PUSH2 0x141 JUMPI PUSH1 0x40 MLOAD PUSH32 0x8C379A000000000000000000000000000000000000000000000000000000000 DUP2 MSTORE PUSH1 0x4 ADD PUSH2 0x138 SWAP1 PUSH2 0x80F JUMP JUMPDEST PUSH1 0x40 MLOAD DUP1 SWAP2 SUB SWAP1 REVERT JUMPDEST PUSH1 0x40 MLOAD DUP1 PUSH1 0xA0 ADD PUSH1 0x40 MSTORE DUP1 DUP5 DUP2 MSTORE PUSH1 0x20 ADD DUP4 PUSH4 0xFFFFFFFF AND DUP2 MSTORE PUSH1 0x20 ADD PUSH0 PUSH1 0x2 DUP2 GT ISZERO PUSH2 0x171 JUMPI PUSH2 0x170 PUSH2 0x617 JUMP JUMPDEST JUMPDEST DUP2 MSTORE PUSH1 0x20 ADD DUP3 PUSH8 0xFFFFFFFFFFFFFFFF AND DUP2 MSTORE PUSH1 0x20 ADD TIMESTAMP DUP2 MSTORE POP PUSH0 DUP1 DUP6 DUP2 MSTORE PUSH1 0x20 ADD SWAP1 DUP2 MSTORE PUSH1 0x20 ADD PUSH0 KECCAK256 PUSH0 DUP3 ADD MLOAD DUP2 PUSH0 ADD SSTORE PUSH1 0x20 DUP3 ADD MLOAD DUP2 PUSH1 0x1 ADD PUSH0 PUSH2 0x100 EXP DUP2 SLOAD DUP2 PUSH4 0xFFFFFFFF MUL NOT AND SWAP1 DUP4 PUSH4 0xFFFFFFFF AND MUL OR SWAP1 SSTORE POP PUSH1 0x40 DUP3 ADD MLOAD DUP2 PUSH1 0x1 ADD PUSH1 0x4 PUSH2 0x100 EXP DUP2 SLOAD DUP2 PUSH1 0xFF MUL NOT AND SWAP1 DUP4 PUSH1 0x2 DUP2 GT ISZERO PUSH2 0x1F3 JUMPI PUSH2 0x1F2 PUSH2 0x617 JUMP JUMPDEST JUMPDEST MUL OR SWAP1 SSTORE POP PUSH1 0x60 DUP3 ADD MLOAD DUP2 PUSH1 0x1 ADD PUSH1 0x5 PUSH2 0x100 EXP DUP2 SLOAD DUP2 PUSH8 0xFFFFFFFFFFFFFFFF MUL NOT AND SWAP1 DUP4 PUSH8 0xFFFFFFFFFFFFFFFF AND MUL OR SWAP1 SSTORE POP PUSH1 0x80 DUP3 ADD MLOAD DUP2 PUSH1 0x2 ADD SSTORE SWAP1 POP POP DUP3 PUSH32 0x35275D029244FA5C0D430AC38FFB3793C7E924907FBA98F96B63EF472C999CCA DUP4 DUP4 TIMESTAMP PUSH1 0x40 MLOAD PUSH2 0x268 SWAP4 SWAP3 SWAP2 SWAP1 PUSH2 0x82D JUMP JUMPDEST PUSH1 0x40 MLOAD DUP1 SWAP2 SUB SWAP1 LOG2 POP POP POP JUMP JUMPDEST PUSH0 DUP1 PUSH0 DUP1 DUP5 PUSH0 DUP1 DUP8 DUP2 MSTORE PUSH1 0x20 ADD SWAP1 DUP2 MSTORE PUSH1 0x20 ADD PUSH0 KECCAK256 PUSH0 ADD SLOAD EQ PUSH2 0x2CD JUMPI PUSH1 0x40 MLOAD PUSH32 0x8C379A000000000000000000000000000000000000000000000000000000000 DUP2 MSTORE PUSH1 0x4 ADD PUSH2 0x2C4 SWAP1 PUSH2 0x8AC JUMP JUMPDEST PUSH1 0x40 MLOAD DUP1 SWAP2 SUB SWAP1 REVERT JUMPDEST PUSH0 DUP1 PUSH0 DUP8 DUP2 MSTORE PUSH1 0x20 ADD SWAP1 DUP2 MSTORE PUSH1 0x20 ADD PUSH0 KECCAK256 PUSH1 0x40 MLOAD DUP1 PUSH1 0xA0 ADD PUSH1 0x40 MSTORE SWAP1 DUP2 PUSH0 DUP3 ADD SLOAD DUP2 MSTORE PUSH1 0x20 ADD PUSH1 0x1 DUP3 ADD PUSH0 SWAP1 SLOAD SWAP1 PUSH2 0x100 EXP SWAP1 DIV PUSH4 0xFFFFFFFF AND PUSH4 0xFFFFFFFF AND PUSH4 0xFFFFFFFF AND DUP2 MSTORE PUSH1 0x20 ADD PUSH1 0x1 DUP3 ADD PUSH1 0x4 SWAP1 SLOAD SWAP1 PUSH2 0x100 EXP SWAP1 DIV PUSH1 0xFF AND PUSH1 0x2 DUP2 GT ISZERO PUSH2 0x33C JUMPI PUSH2 0x33B PUSH2 0x617 JUMP JUMPDEST JUMPDEST PUSH1 0x2 DUP2 GT ISZERO PUSH2 0x34E JUMPI PUSH2 0x34D PUSH2 0x617 JUMP JUMPDEST JUMPDEST DUP2 MSTORE PUSH1 0x20 ADD PUSH1 0x1 DUP3 ADD PUSH1 0x5 SWAP1 SLOAD SWAP1 PUSH2 0x100 EXP SWAP1 DIV PUSH8 0xFFFFFFFFFFFFFFFF AND PUSH8 0xFFFFFFFFFFFFFFFF AND PUSH8 0xFFFFFFFFFFFFFFFF AND DUP2 MSTORE PUSH1 0x20 ADD PUSH1 0x2 DUP3 ADD SLOAD DUP2 MSTORE POP POP SWAP1 POP DUP1 PUSH1 0x20 ADD MLOAD DUP2 PUSH1 0x40 ADD MLOAD DUP3 PUSH1 0x60 ADD MLOAD DUP4 PUSH1 0x80 ADD MLOAD SWAP5 POP SWAP5 POP SWAP5 POP SWAP5 POP POP SWAP2 SWAP4 POP SWAP2 SWAP4 JUMP JUMPDEST DUP2 PUSH0 DUP1 DUP5 DUP2 MSTORE PUSH1 0x20 ADD SWAP1 DUP2 MSTORE PUSH1 0x20 ADD PUSH0 KECCAK256 PUSH0 ADD SLOAD EQ PUSH2 0x408 JUMPI PUSH1 0x40 MLOAD PUSH32 0x8C379A000000000000000000000000000000000000000000000000000000000 DUP2 MSTORE PUSH1 0x4 ADD PUSH2 0x3FF SWAP1 PUSH2 0x8AC JUMP JUMPDEST PUSH1 0x40 MLOAD DUP1 SWAP2 SUB SWAP1 REVERT JUMPDEST DUP1 PUSH0 DUP1 DUP5 DUP2 MSTORE PUSH1 0x20 ADD SWAP1 DUP2 MSTORE PUSH1 0x20 ADD PUSH0 KECCAK256 PUSH1 0x1 ADD PUSH1 0x4 PUSH2 0x100 EXP DUP2 SLOAD DUP2 PUSH1 0xFF MUL NOT AND SWAP1 DUP4 PUSH1 0x2 DUP2 GT ISZERO PUSH2 0x43E JUMPI PUSH2 0x43D PUSH2 0x617 JUMP JUMPDEST JUMPDEST MUL OR SWAP1 SSTORE POP DUP2 PUSH32 0xC48439C7F713594EFA50AA3D07FFC741E894CCD7AF46EB1A434696F58D38E790 DUP3 PUSH1 0x40 MLOAD PUSH2 0x473 SWAP2 SWAP1 PUSH2 0x8CA JUMP JUMPDEST PUSH1 0x40 MLOAD DUP1 SWAP2 SUB SWAP1 LOG2 POP POP JUMP JUMPDEST PUSH0 PUSH1 0x20 MSTORE DUP1 PUSH0 MSTORE PUSH1 0x40 PUSH0 KECCAK256 PUSH0 SWAP2 POP SWAP1 POP DUP1 PUSH0 ADD SLOAD SWAP1 DUP1 PUSH1 0x1 ADD PUSH0 SWAP1 SLOAD SWAP1 PUSH2 0x100 EXP SWAP1 DIV PUSH4 0xFFFFFFFF AND SWAP1 DUP1 PUSH1 0x1 ADD PUSH1 0x4 SWAP1 SLOAD SWAP1 PUSH2 0x100 EXP SWAP1 DIV PUSH1 0xFF AND SWAP1 DUP1 PUSH1 0x1 ADD PUSH1 0x5 SWAP1 SLOAD SWAP1 PUSH2 0x100 EXP SWAP1 DIV PUSH8 0xFFFFFFFFFFFFFFFF AND SWAP1 DUP1 PUSH1 0x2 ADD SLOAD SWAP1 POP DUP6 JUMP JUMPDEST PUSH0 DUP1 REVERT JUMPDEST PUSH0 DUP2 SWAP1 POP SWAP2 SWAP1 POP JUMP JUMPDEST PUSH2 0x4F6 DUP2 PUSH2 0x4E4 JUMP JUMPDEST DUP2 EQ PUSH2 0x500 JUMPI PUSH0 DUP1 REVERT JUMPDEST POP JUMP JUMPDEST PUSH0 DUP2 CALLDATALOAD SWAP1 POP PUSH2 0x511 DUP2 PUSH2 0x4ED JUMP JUMPDEST SWAP3 SWAP2 POP POP JUMP JUMPDEST PUSH0 PUSH4 0xFFFFFFFF DUP3 AND SWAP1 POP SWAP2 SWAP1 POP JUMP JUMPDEST PUSH2 0x52F DUP2 PUSH2 0x517 JUMP JUMPDEST DUP2 EQ PUSH2 0x539 JUMPI PUSH0 DUP1 REVERT JUMPDEST POP JUMP JUMPDEST PUSH0 DUP2 CALLDATALOAD SWAP1 POP PUSH2 0x54A DUP2 PUSH2 0x526 JUMP JUMPDEST SWAP3 SWAP2 POP POP JUMP JUMPDEST PUSH0 PUSH8 0xFFFFFFFFFFFFFFFF DUP3 AND SWAP1 POP SWAP2 SWAP1 POP JUMP JUMPDEST PUSH2 0x56C DUP2 PUSH2 0x550 JUMP JUMPDEST DUP2 EQ PUSH2 0x576 JUMPI PUSH0 DUP1 REVERT JUMPDEST POP JUMP JUMPDEST PUSH0 DUP2 CALLDATALOAD SWAP1 POP PUSH2 0x587 DUP2 PUSH2 0x563 JUMP JUMPDEST SWAP3 SWAP2 POP POP JUMP JUMPDEST PUSH0 DUP1 PUSH0 PUSH1 0x60 DUP5 DUP7 SUB SLT ISZERO PUSH2 0x5A4 JUMPI PUSH2 0x5A3 PUSH2 0x4E0 JUMP JUMPDEST JUMPDEST PUSH0 PUSH2 0x5B1 DUP7 DUP3 DUP8 ADD PUSH2 0x503 JUMP JUMPDEST SWAP4 POP POP PUSH1 0x20 PUSH2 0x5C2 DUP7 DUP3 DUP8 ADD PUSH2 0x53C JUMP JUMPDEST SWAP3 POP POP PUSH1 0x40 PUSH2 0x5D3 DUP7 DUP3 DUP8 ADD PUSH2 0x579 JUMP JUMPDEST SWAP2 POP POP SWAP3 POP SWAP3 POP SWAP3 JUMP JUMPDEST PUSH0 PUSH1 0x20 DUP3 DUP5 SUB SLT ISZERO PUSH2 0x5F2 JUMPI PUSH2 0x5F1 PUSH2 0x4E0 JUMP JUMPDEST JUMPDEST PUSH0 PUSH2 0x5FF DUP5 DUP3 DUP6 ADD PUSH2 0x503 JUMP JUMPDEST SWAP2 POP POP SWAP3 SWAP2 POP POP JUMP JUMPDEST PUSH2 0x611 DUP2 PUSH2 0x517 JUMP JUMPDEST DUP3 MSTORE POP POP JUMP JUMPDEST PUSH32 0x4E487B7100000000000000000000000000000000000000000000000000000000 PUSH0 MSTORE PUSH1 0x21 PUSH1 0x4 MSTORE PUSH1 0x24 PUSH0 REVERT JUMPDEST PUSH1 0x3 DUP2 LT PUSH2 0x655 JUMPI PUSH2 0x654 PUSH2 0x617 JUMP JUMPDEST JUMPDEST POP JUMP JUMPDEST PUSH0 DUP2 SWAP1 POP PUSH2 0x665 DUP3 PUSH2 0x644 JUMP JUMPDEST SWAP2 SWAP1 POP JUMP JUMPDEST PUSH0 PUSH2 0x674 DUP3 PUSH2 0x658 JUMP JUMPDEST SWAP1 POP SWAP2 SWAP1 POP JUMP JUMPDEST PUSH2 0x684 DUP2 PUSH2 0x66A JUMP JUMPDEST DUP3 MSTORE POP POP JUMP JUMPDEST PUSH2 0x693 DUP2 PUSH2 0x550 JUMP JUMPDEST DUP3 MSTORE POP POP JUMP JUMPDEST PUSH0 DUP2 SWAP1 POP SWAP2 SWAP1 POP JUMP JUMPDEST PUSH2 0x6AB DUP2 PUSH2 0x699 JUMP JUMPDEST DUP3 MSTORE POP POP JUMP JUMPDEST PUSH0 PUSH1 0x80 DUP3 ADD SWAP1 POP PUSH2 0x6C4 PUSH0 DUP4 ADD DUP8 PUSH2 0x608 JUMP JUMPDEST PUSH2 0x6D1 PUSH1 0x20 DUP4 ADD DUP7 PUSH2 0x67B JUMP JUMPDEST PUSH2 0x6DE PUSH1 0x40 DUP4 ADD DUP6 PUSH2 0x68A JUMP JUMPDEST PUSH2 0x6EB PUSH1 0x60 DUP4 ADD DUP5 PUSH2 0x6A2 JUMP JUMPDEST SWAP6 SWAP5 POP POP POP POP POP JUMP JUMPDEST PUSH1 0x3 DUP2 LT PUSH2 0x700 JUMPI PUSH0 DUP1 REVERT JUMPDEST POP JUMP JUMPDEST PUSH0 DUP2 CALLDATALOAD SWAP1 POP PUSH2 0x711 DUP2 PUSH2 0x6F4 JUMP JUMPDEST SWAP3 SWAP2 POP POP JUMP JUMPDEST PUSH0 DUP1 PUSH1 0x40 DUP4 DUP6 SUB SLT ISZERO PUSH2 0x72D JUMPI PUSH2 0x72C PUSH2 0x4E0 JUMP JUMPDEST JUMPDEST PUSH0 PUSH2 0x73A DUP6 DUP3 DUP7 ADD PUSH2 0x503 JUMP JUMPDEST SWAP3 POP POP PUSH1 0x20 PUSH2 0x74B DUP6 DUP3 DUP7 ADD PUSH2 0x703 JUMP JUMPDEST SWAP2 POP POP SWAP3 POP SWAP3 SWAP1 POP JUMP JUMPDEST PUSH2 0x75E DUP2 PUSH2 0x4E4 JUMP JUMPDEST DUP3 MSTORE POP POP JUMP JUMPDEST PUSH0 PUSH1 0xA0 DUP3 ADD SWAP1 POP PUSH2 0x777 PUSH0 DUP4 ADD DUP9 PUSH2 0x755 JUMP JUMPDEST PUSH2 0x784 PUSH1 0x20 DUP4 ADD DUP8 PUSH2 0x608 JUMP JUMPDEST PUSH2 0x791 PUSH1 0x40 DUP4 ADD DUP7 PUSH2 0x67B JUMP JUMPDEST PUSH2 0x79E PUSH1 0x60 DUP4 ADD DUP6 PUSH2 0x68A JUMP JUMPDEST PUSH2 0x7AB PUSH1 0x80 DUP4 ADD DUP5 PUSH2 0x6A2 JUMP JUMPDEST SWAP7 SWAP6 POP POP POP POP POP POP JUMP JUMPDEST PUSH0 DUP3 DUP3 MSTORE PUSH1 0x20 DUP3 ADD SWAP1 POP SWAP3 SWAP2 POP POP JUMP JUMPDEST PUSH32 0x5469636B657420616C7265616479206578697374730000000000000000000000 PUSH0 DUP3 ADD MSTORE POP JUMP JUMPDEST PUSH0 PUSH2 0x7F9 PUSH1 0x15 DUP4 PUSH2 0x7B5 JUMP JUMPDEST SWAP2 POP PUSH2 0x804 DUP3 PUSH2 0x7C5 JUMP JUMPDEST PUSH1 0x20 DUP3 ADD SWAP1 POP SWAP2 SWAP1 POP JUMP JUMPDEST PUSH0 PUSH1 0x20 DUP3 ADD SWAP1 POP DUP2 DUP2 SUB PUSH0 DUP4 ADD MSTORE PUSH2 0x826 DUP2 PUSH2 0x7ED JUMP JUMPDEST SWAP1 POP SWAP2 SWAP1 POP JUMP JUMPDEST PUSH0 PUSH1 0x60 DUP3 ADD SWAP1 POP PUSH2 0x840 PUSH0 DUP4 ADD DUP7 PUSH2 0x608 JUMP JUMPDEST PUSH2 0x84D PUSH1 0x20 DUP4 ADD DUP6 PUSH2 0x68A JUMP JUMPDEST PUSH2 0x85A PUSH1 0x40 DUP4 ADD DUP5 PUSH2 0x6A2 JUMP JUMPDEST SWAP5 SWAP4 POP POP POP POP JUMP JUMPDEST PUSH32 0x496E76616C6964207469636B6574204944000000000000000000000000000000 PUSH0 DUP3 ADD MSTORE POP JUMP JUMPDEST PUSH0 PUSH2 0x896 PUSH1 0x11 DUP4 PUSH2 0x7B5 JUMP JUMPDEST SWAP2 POP PUSH2 0x8A1 DUP3 PUSH2 0x862 JUMP JUMPDEST PUSH1 0x20 DUP3 ADD SWAP1 POP SWAP2 SWAP1 POP JUMP JUMPDEST PUSH0 PUSH1 0x20 DUP3 ADD SWAP1 POP DUP2 DUP2 SUB PUSH0 DUP4 ADD MSTORE PUSH2 0x8C3 DUP2 PUSH2 0x88A JUMP JUMPDEST SWAP1 POP SWAP2 SWAP1 POP JUMP JUMPDEST PUSH0 PUSH1 0x20 DUP3 ADD SWAP1 POP PUSH2 0x8DD PUSH0 DUP4 ADD DUP5 PUSH2 0x67B JUMP JUMPDEST SWAP3 SWAP2 POP POP JUMP INVALID LOG2 PUSH5 0x6970667358 0x22 SLT KECCAK256 0xEC 0xA5 PUSH32 0x12756A8BC7AB7B17CBB401C42FB21C6CB36A9778EDAB354A0BC77F868964736F PUSH13 0x634300081A0033000000000000 "
				},
				"gasEstimates": {
					"creation": {
						"codeDepositCost": "465800",
						"executionCost": "497",
						"totalCost": "466297"
					},
					"external": {
						"createTicket(bytes32,uint32,uint64)": "infinite",
						"getTicketDetails(bytes32)": "14289",
						"tickets(bytes32)": "infinite",
						"updateTicketStatus(bytes32,uint8)": "28835"
					}
				},
				"methodIdentifiers": {
					"createTicket(bytes32,uint32,uint64)": "8707fbfe",
					"getTicketDetails(bytes32)": "b64dec65",
					"tickets(bytes32)": "df0dd0d5",
					"updateTicketStatus(bytes32,uint8)": "cda24031"
				}
			},
			"storageLayout": {
				"storage": [
					{
						"astId": 22,
						"contract": "contracts/Ticketing.sol:Ticketing",
						"label": "tickets",
						"offset": 0,
						"slot": "0",
						"type": "t_mapping(t_bytes32,t_struct(Ticket)17_storage)"
					}
				],
				"types": {
					"t_bytes32": {
						"encoding": "inplace",
						"label": "bytes32",
						"numberOfBytes": "32"
					},
					"t_enum(Status)5": {
						"encoding": "inplace",
						"label": "enum Ticketing.Status",
						"numberOfBytes": "1"
					},
					"t_mapping(t_bytes32,t_struct(Ticket)17_storage)": {
						"encoding": "mapping",
						"key": "t_bytes32",
						"label": "mapping(bytes32 => struct Ticketing.Ticket)",
						"numberOfBytes": "32",
						"value": "t_struct(Ticket)17_storage"
					},
					"t_struct(Ticket)17_storage": {
						"encoding": "inplace",
						"label": "struct Ticketing.Ticket",
						"members": [
							{
								"astId": 7,
								"contract": "contracts/Ticketing.sol:Ticketing",
								"label": "ticketId",
								"offset": 0,
								"slot": "0",
								"type": "t_bytes32"
							},
							{
								"astId": 9,
								"contract": "contracts/Ticketing.sol:Ticketing",
								"label": "price",
								"offset": 0,
								"slot": "1",
								"type": "t_uint32"
							},
							{
								"astId": 12,
								"contract": "contracts/Ticketing.sol:Ticketing",
								"label": "status",
								"offset": 4,
								"slot": "1",
								"type": "t_enum(Status)5"
							},
							{
								"astId": 14,
								"contract": "contracts/Ticketing.sol:Ticketing",
								"label": "paymentId",
								"offset": 5,
								"slot": "1",
								"type": "t_uint64"
							},
							{
								"astId": 16,
								"contract": "contracts/Ticketing.sol:Ticketing",
								"label": "timestamp",
								"offset": 0,
								"slot": "2",
								"type": "t_uint256"
							}
						],
						"numberOfBytes": "96"
					},
					"t_uint256": {
						"encoding": "inplace",
						"label": "uint256",
						"numberOfBytes": "32"
					},
					"t_uint32": {
						"encoding": "inplace",
						"label": "uint32",
						"numberOfBytes": "4"
					},
					"t_uint64": {
						"encoding": "inplace",
						"label": "uint64",
						"numberOfBytes": "8"
					}
				}
			},
			"userdoc": {
				"kind": "user",
				"methods": {},
				"version": 1
			}
		}
	}
}